:040000003CEF00F0E1
:1000080000C015F0F2A021D081AE0ED0800E1718D6
:10001800006E800E130A005C02E1880E165C04E292
:10002800320E1626000E172281AC0DD0800E006EFF
:10003800800E1718005C02E11650320804E2320EF6
:10004800165E000E175AF29008D0F2A406D0F29469
:10005800F294210E1826000E192215C000F0110086
:100068000900F5CFE6FF0006FBE10106F9E1120001
:10007800E80E166E030E176E186A196A010E1A6ECC
:10008800C70ED56E938C938E0F01399D399FC00E84
:10009800626E946A010E8B6EF28AF294F286F29086
:1000A800F28E800E1918006E800E1718005C02E19F
:1000B8001650185C1BE3186A196A1A5207E08BCFAE
:1000C80000F00036009000C08BFF06D08BCF00F008
:1000D8000032009E00C08BFF8B50010A03E1010E25
:1000E8001A6E04D08B50800AD8B41A6ADAD7FFD7B0
:020000040030CA
:0D000100231F3CFFBF81FF0FC00FE00F4029
:00000001FF
