:0400000020EF02F0FB
:1000080000C015F0F2A40DD0F294F80ED66E000ED2
:10001800191802E1010E181802E1274A282A1F4A76
:08002800202A15C000F01100B0
:100030000F0E0C6E470E0D6E0D2EFED70C2EFCD73C
:06004000000000001200A8
:0A004600210E0D6E0D2EFED71200E4
:0600500000000000120098
:10005600000175BF02D08A9601D08A8675BD02D08E
:100066008A9401D08A8475BB02D08A9201D08A8292
:1000760075B902D08A9001D08A802BB002D08A88C6
:1000860001D08A988A8AE1DF8A9A75B702D08A9661
:1000960001D08A8675B502D08A9401D08A8475B358
:1000A60002D08A9201D08A8275B102D08A9001D09C
:1000B6008A802BB002D08A8801D08A988A8AC5DFC6
:0E00C6008A9A2BA002D0B1DF01D0BADF12005F
:1000D400086A096A100E0C6E013408360936045099
:1000E400085E0550D8A0053C095ED8B007D004507E
:1000F40008260550D8B0053C0926D89000360136AC
:060104000C2EEAD71200E8
:0C010A002B906EC075F0A2DF2B8012005D
:100116000001726B050E725D0AE272517025E16E86
:10012600000E7121E26E200EE66E722BF3D772512D
:100136007025E16E000E7121E26EE66A7207725159
:100146007025736F000E7121746F0A0E046E000E17
:10015600056E6EC000F06FC001F0B9DF08C000F098
:1001660009C001F0300E002673C0E1FF74C0E2FF43
:1001760000C0E6FF0A0E046E000E056E6EC000F0AB
:100186006FC001F0A4DF00C06EF001C06FF0000E7A
:10019600011802E1000E001801E102D07207CFD764
:0201A600120045
:1001A80064C002F065C003F002C000F003C001F0B3
:1001B800024A032A00C0E9FF01C0EAFFEE5201E04B
:1001C800F3D700016451025C006E65510358016E5B
:0A01D800010E005E000E015A120035
:1001E2000900F5CFE6FF0006FBE10106F9E1120086
:1001F200939A939893909392939493968A9A8A98C7
:100202008A968A948A928A9012DF11DF10DF8A829C
:100212008A808A8A1CDF8A9A0ADF8A8A18DF8A9A87
:1002220006DF8A8A14DF8A9A02DF8A908A8A0FDFBF
:100232008A9AFDDE8A8A0BDF8A9A8A928A868A8A5B
:1002420006DF8A9AF4DE8A968A808A8A00DF8A9A90
:100252008A908A8AFCDE8A9AEADE8A8AF8DE8A9A9A
:100262008A808A8AF4DE8A9AE2DE8A908A8AEFDEBD
:100272008A9A8A868A848A828A808A8AE8DE8A9A26
:06028200D6DE2B80120005
:1002880000016A6B6B6B64C06CF065C06DF0800E2A
:100298006519006E800E005C02E1000E645D0BE2E1
:1002A800010E6A6F000E6B6F645100086C6F65C0B9
:1002B8006DF0000E6D576CC06EF06DC06FF066C0CB
:1002C80070F067C071F023DF060E686F000E696F6B
:1002D800000E006E6951005C02E16851000819E2E5
:1002E80068516625E16E69516721E26E010E685D0D
:1002F800006E000E6959016E00506625E96E0150C6
:100308006721EA6EEECFE6FF010E685F000E695BBB
:10031800DFD766C0E1FF67C0E2FF200EE66E6A51D4
:100328006B111AE0686B696B68516625E96E695153
:100338006721EA6EEE50200A03E1684B692BF4D777
:10034800010E685F000E695B68516625E16E6951B0
:0A0358006721E26E2D0EE66E120022
:1003620064C004F065C005F004C0E9FF05C0EAFFFF
:10037200EE5203E0044A052AF7D704C002F005C092
:1003820003F0044A052A66C000F067C001F00001CC
:10039200664B672B00C0E9FF01C0EAFF02C0E1FF24
:1003A20003C0E2FFEECFE6FF02C0E9FF03C0EAFFAF
:1003B200EE5201E0E2D764C000F065C001F0120025
:1003C20010D0800E0001646F1AD0C00E646F17D077
:1003D200940E646F14D0D40E646F11D0800E646FCB
:1003E2000ED000016451010AECE06451020AEDE012
:1003F2006451030AEDE06451040AEDE0EFD76505AC
:10040200006E6451002600C064F000C075F022DE68
:100412002B90686B68516625E96E000E6721EA6EC3
:10042200EE520BE068516625E96E000E6721EA6E16
:0E043200EECF6EF069DE682BEDD72B80120046
:10044000DAEC03F0820EF66E070EF76E000EF86E11
:100450002C0EE16E000EE26E1D0E006E010E016E9E
:10046000C0DEC70ED56EF80ED66E956A1F0E926E60
:100470000F01386BF28AF28E80CF45F0000E466E87
:10048000B8DE010E0001756FE6DD0C0E756FE3DD61
:100490001F0E4514026E46C003F0000E03161F0E19
:1004A0008014006E000E016E0250001603500116FB
:1004B0000050011053E11F0E8014016E0150000A1C
:1004C0004DE080CF45F0000E466E80A005D0010EB5
:1004D000186E000E196E42D080A203D0186A196AF5
:1004E0003DD080A41AD0336A346A356A366A010E68
:1004F000756FB1DD0C0E756FAEDD390E646F000ED9
:10050000656F52DE00501008656F010E646F390E82
:10051000666F000E676F55DF21D080A60FD0800E6A
:100520004818006E800E070A005C02E1D00E475C9E
:1005300004E22C0E4726010E482210D080A80ED0CF
:10054000800E010A006E800E4818005C02E14750E0
:10055000F40804E22C0E475E010E485A2050485C15
:1005600002E11F50475C1BE21F6A206A2C0EE96EF5
:10057000000EEA6E3250E926D8B0EA2AEECF8CFFA0
:100580003250040AD8B4316A3250000A02E1010E36
:10059000316E3150010A02E1322A01D03206285070
:1005A000381802E137502718D8B4E9D0285003088A
:1005B00002E12750E8080EE2332A276A286A3350FE
:1005C0003C0808E2342A336A34503C0803E2354AD6
:1005D000362A346A496A35C064F036C065F05A0E6E
:1005E000666F000E676F50DE490E646F000E656F18
:1005F0005D0E666F000E676FB4DE490E646F000E0D
:10060000656F290E666F000E676FABDE34C064F055
:10061000000E656F5A0E666F000E676F35DE0A0EAC
:10062000345C13E2490E646F000E656F250E666F31
:10063000000E676F96DE490E646F000E656F5F0EE9
:10064000666F000E676F8DDE09D0490E646F000E75
:10065000656F5E0E666F000E676F83DE490E646F16
:10066000000E656F210E666F000E676F7ADE33C075
:1006700064F0000E656F5A0E666F000E676F04DE41
:100680000A0E335C13E2490E646F000E656F230E91
:10069000666F000E676F65DE490E646F000E656F52
:1006A0005F0E666F000E676F5CDE09D0490E646FE7
:1006B000000E656F5E0E666F000E676F52DE490EAC
:1006C000646F000E656F160E666F000E676F49DE71
:1006D00027C064F028C065F05A0E666F000E676F81
:1006E000D3DD000E285C02E10A0E275C13E2490EFE
:1006F000646F000E656F1A0E666F000E676F31DE55
:10070000490E646F000E656F5F0E666F000E676FB7
:1007100028DE22D0000E285C02E1640E275C13E282
:10072000490E646F000E656F1D0E666F000E676FD9
:1007300018DE490E646F000E656F5E0E666F000E68
:10074000676F0FDE09D0490E646F000E656F5D0E96
:10075000666F000E676F05DE490E646F000E656FF1
:1007600023DD00501008656F010E646F490E666F3F
:10077000000E676F26DE27C037F028C038F088D615
:02078000FFD7A1
:1007B40010EE16F0150E006E010E016E9F0EF66E11
:0E07C400070EF76E000EF86EF1EC00F012005A
:05078200FF7E3C1800A1
:010787000170
:010788000070
:01078900006F
:01078A00006E
:02078B0000006C
:02078D0000006A
:0C078F00303A30303A30303A3030300030
:02079B0000005C
:02079D00F40165
:02079F003A001E
:0207A100010055
:0307A300303000F3
:0207A600300021
:0207A80000004F
:0207AA003A0013
:0207AC0030001B
:0207AE00300019
:0207B000000047
:0207B2003A000B
:020000040030CA
:0D000100231F3CFFBF81FF0FC00FE00F4029
:00000001FF
