:04000000CEEF01F04E
:1000080000C015F0F2A40DD0F294F80ED66E000ED2
:100018001B1802E1010E1A1802E1184A192A164A99
:08002800172A15C000F01100B9
:100030000F0E0C6E470E0D6E0D2EFED70C2EFCD73C
:06004000000000001200A8
:0A004600210E0D6E0D2EFED71200E4
:0600500000000000120098
:100056003DBE02D08A9601D08A863DBC02D08A94E3
:1000660001D08A843DBA02D08A9201D08A823DB8F4
:1000760002D08A9001D08A801CB002D08A8801D032
:100086008A988A8AE2DF8A9A3DB602D08A9601D099
:100096008A863DB402D08A9401D08A843DB202D0C9
:1000A6008A9201D08A823DB002D08A9001D08A809D
:1000B6001CB002D08A8801D08A988A8AC6DF8A9ABA
:0C00C6001CA002D0B2DF01D0BBDF120092
:1000D200086A096A100E0C6E01340836093604509B
:1000E200085E0550D8A0053C095ED8B007D0045080
:1000F20008260550D8B0053C0926D89000360136AE
:060102000C2EEAD71200EA
:100108003A6A050E3A5C0AE23A503824E16E000E6B
:100118003920E26E200EE66E3A2AF3D73A50382498
:10012800E16E000E3920E26EE66A3A063A5038244B
:100138003B6E000E39203C6E0A0E046E000E056EF2
:1001480036C000F037C001F0C0DF08C000F009C0B9
:1001580001F0300E00263BC0E1FF3CC0E2FF00C0CA
:10016800E6FF0A0E046E000E056E36C000F037C0BA
:1001780001F0ABDF00C036F001C037F0000E011807
:1001880002E1000E001801E102D03A06CFD71200B2
:0C0198001C9036C03DF05BDF1C801200A4
:1001A400939A939893909392939493968A9A8A9815
:1001B4008A968A948A928A9039DF38DF37DF8A8276
:1001C4008A808A8A43DF8A9A31DF8A8A3FDF8A9A61
:1001D4002DDF8A8A3BDF8A9A29DF8A908A8A36DF72
:1001E4008A9A24DF8A8A32DF8A9A8A928A868A8A5B
:1001F4002DDF8A9A1BDF8A968A808A8A27DF8A9A69
:100204008A908A8A23DF8A9A11DF8A8A1FDF8A9A70
:100214008A808A8A1BDF8A9A09DF8A908A8A16DF93
:100224008A9A8A868A848A828A808A8A0FDF8A9A4C
:06023400FDDE1C8012003B
:10023A000900F5CFE6FF0006FBE10106F9E112002D
:10024A00326A336A2CC034F02DC035F0800E2D1876
:10025A00006E800E005C02E1000E2C5C0BE2010EC7
:10026A00326E000E336E2C500008346E2DC035F0FD
:10027A00000E355634C036F035C037F02EC038F08F
:10028A002FC039F03CDF060E306E000E316E000EC4
:10029A00006E3150005C02E13050000819E2305023
:1002AA002E24E16E31502F20E26E010E305C006E7A
:1002BA00000E3158016E00502E24E96E01502F2095
:1002CA00EA6EEECFE6FF010E305E000E315ADFD73E
:1002DA002EC0E1FF2FC0E2FF200EE66E325033102F
:1002EA001AE0306A316A30502E24E96E31502F20DC
:1002FA00EA6EEE50200A03E1304A312AF4D7010EA1
:10030A00305E000E315A30502E24E16E31502F20CB
:08031A00E26E2D0EE66E1200EA
:100322000FD0800E2C6E19D0C00E2C6E16D0940EEB
:100332002C6E13D0D40E2C6E10D0800E2C6E0DD0DD
:100342002C50010AEEE02C50020AEEE02C50030A77
:10035200EEE02C50040AEEE0F0D72D04006E2C5093
:10036200002600C02CF000C03DF074DE1C90306A04
:1003720030502E24E96E000E2F20EA6EEE520BE072
:1003820030502E24E96E000E2F20EA6EEECF36F0AA
:0A03920002DF302AEDD71C801200B4
:10039C00166A176A186A196A010E1A6E1B6AFF0E22
:1003AC00206E7E0E216E3C0E226E180E236E246A79
:1003BC00010E256E266A276A286A296AF40E2A6EAF
:1003CC00010E2B6EC70ED56EF80ED66E956A1F0EEB
:1003DC00926E0F01386BF28AF28E80CF28F0000EED
:1003EC00296EDADE010E3D6E30DE0C0E3D6E2DDE1A
:1003FC002850291005E0805203E0010E006E01D058
:10040C00006A005245E18050000A42E080CF28F09B
:10041C00000E296E80A005D0010E1A6E000E1B6E08
:10042C0037D080A203D01A6A1B6A32D080A40FD0B6
:10043C00276A010E3D6E09DE0C0E3D6E06DE010EC6
:10044C002C6E010E2D6E2E6A2F6A65DF21D080A6D0
:10045C000FD0800E2B18006E800E070A005C02E194
:10046C00D00E2A5C04E22C0E2A26010E2B2210D070
:10047C0080A80ED0800E010A006E800E2B18005C36
:10048C0002E12A50F40804E22C0E2A5E010E2B5ACB
:10049C0017502B5C02E116502A5C1BE2166A176A95
:1004AC00200EE96E000EEA6E2650E926D8B0EA2A34
:1004BC00EECF8CFF2650040AD8B4256A2650000AC9
:1004CC0002E1010E256E2550010A02E1262A01D017
:1004DC0026061950030802E11850E8081BE2272AE7
:1004EC00186A196A010E3D6EB0DD0C0E3D6EADDD65
:1004FC0027C02CF0000E2D6E1D0E2E6E000E2F6ED2
:10050C009EDE010E2C6E010E2D6E1D0E2E6E000E3B
:08051C002F6E01DF6DD7FFD740
:020000040030CA
:0D000100231F3CFFBF81FF0FC00FE00F4029
:00000001FF
