:04000000CEEF01F04E
:1000080000C015F0F2A40DD0F294F80ED66E000ED2
:100018001B1802E1010E1A1802E11C4A1D2A164A91
:08002800172A15C000F01100B9
:100030000F0E0C6E470E0D6E0D2EFED70C2EFCD73C
:06004000000000001200A8
:0A004600210E0D6E0D2EFED71200E4
:0600500000000000120098
:1000560044BE02D08A9601D08A8644BC02D08A94D5
:1000660001D08A8444BA02D08A9201D08A8244B8E6
:1000760002D08A9001D08A801EB002D08A8801D030
:100086008A988A8AE2DF8A9A44B602D08A9601D092
:100096008A8644B402D08A9401D08A8444B202D0BB
:1000A6008A9201D08A8244B002D08A9001D08A8096
:1000B6001EB002D08A8801D08A988A8AC6DF8A9AB8
:0C00C6001EA002D0B2DF01D0BBDF120090
:1000D200086A096A100E0C6E01340836093604509B
:1000E200085E0550D8A0053C095ED8B007D0045080
:1000F20008260550D8B0053C0926D89000360136AE
:060102000C2EEAD71200EA
:10010800416A050E415C0AE241503F24E16E000E4F
:100118004020E26E200EE66E412AF3D741503F247C
:10012800E16E000E4020E26EE66A410641503F242F
:10013800426E000E4020436E0A0E046E000E056EDD
:100148003DC000F03EC001F0C0DF08C000F009C0AB
:1001580001F0300E002642C0E1FF43C0E2FF00C0BC
:10016800E6FF0A0E046E000E056E3DC000F03EC0AC
:1001780001F0ABDF00C03DF001C03EF0000E0118F9
:1001880002E1000E001801E102D04106CFD71200AB
:0C0198001E903DC044F05BDF1E80120092
:1001A400939A939893909392939493968A9A8A9815
:1001B4008A968A948A928A9039DF38DF37DF8A8276
:1001C4008A808A8A43DF8A9A31DF8A8A3FDF8A9A61
:1001D4002DDF8A8A3BDF8A9A29DF8A908A8A36DF72
:1001E4008A9A24DF8A8A32DF8A9A8A928A868A8A5B
:1001F4002DDF8A9A1BDF8A968A808A8A27DF8A9A69
:100204008A908A8A23DF8A9A11DF8A8A1FDF8A9A70
:100214008A808A8A1BDF8A9A09DF8A908A8A16DF93
:100224008A9A8A868A848A828A808A8A0FDF8A9A4C
:06023400FDDE1E80120039
:10023A000900F5CFE6FF0006FBE10106F9E112002D
:10024A00396A3A6A33C03BF034C03CF0800E341845
:10025A00006E800E005C02E1000E335C0BE2010EC0
:10026A00396E000E3A6E335000083B6E34C03CF0D3
:10027A00000E3C563BC03DF03CC03EF035C03FF05E
:10028A0036C040F03CDF060E376E000E386E000EA8
:10029A00006E3850005C02E13750000819E237500E
:1002AA003524E16E38503620E26E010E375C006E5E
:1002BA00000E3858016E00503524E96E0150362080
:1002CA00EA6EEECFE6FF010E375E000E385ADFD730
:1002DA0035C0E1FF36C0E2FF200EE66E39503A1013
:1002EA001AE0376A386A37503524E96E38503620B2
:1002FA00EA6EEE50200A03E1374A382AF4D7010E93
:10030A00375E000E385A37503524E16E38503620A1
:08031A00E26E2D0EE66E1200EA
:100322000FD0800E336E19D0C00E336E16D0940EDD
:10033200336E13D0D40E336E10D0800E336E0DD0C8
:100342003350010AEEE03350020AEEE03350030A62
:10035200EEE03350040AEEE0F0D73404006E33507E
:10036200002600C033F000C044F074DE1E90376AED
:1003720037503524E96E000E3620EA6EEE520BE05D
:1003820037503524E96E000E3620EA6EEECF3DF08E
:0A03920002DF372AEDD71E801200AB
:10039C00166A176A300E186E196A010E1A6E1B6AED
:1003AC001C6A1D6AFF0E276E7E0E286E3C0E296E8F
:1003BC00180E2A6E2B6A010E2C6E2D6A2E6A2F6A6D
:1003CC00306AF40E316E010E326EC70ED56EF80E19
:1003DC00D66E956A1F0E926E0F01386BF28AF28EF2
:1003EC0080CF2FF0000E306ED7DE010E446E2DDE66
:1003FC000C0E446E2ADE1F0E2F14026E30C003F05A
:10040C00000E03161F0E8014006E000E016E0250BB
:10041C00001603500116005001104AE11F0E801403
:10042C00016E0150000A44E080CF2FF0000E306EB8
:10043C0080A005D0010E1A6E000E1B6E39D080A262
:10044C0003D01A6A1B6A34D080A411D02E6A010E14
:10045C00446EFBDD0C0E446EF8DD010E336E060EA1
:10046C00346E180E356E000E366E55DF21D080A618
:10047C000FD0800E3218006E800E070A005C02E16D
:10048C00D00E315C04E22C0E3126010E322210D03B
:10049C0080A80ED0800E010A006E800E3218005C0F
:1004AC0002E13150F40804E22C0E315E010E325A96
:1004BC001750325C02E11650315C1BE2166A176A67
:1004CC00270EE96E000EEA6E2D50E926D8B0EA2A06
:1004DC00EECF8CFF2D50040AD8B42C6A2D50000A94
:1004EC0002E1010E2C6E2C50010A02E12D2A01D0E2
:1004FC002D061D50030802E11C50E8081BE22E2AB1
:10050C001C6A1D6A010E446EA0DD0C0E446E9DDD4E
:10051C002EC033F0000E346E1F0E356E000E366E8C
:10052C008EDE010E336E010E346E1F0E356E000E14
:08053C00366EF1DE60D7FFD737
:020000040030CA
:0D000100231F3CFFBF81FF0FC00FE00F4029
:00000001FF
