:040000004FEF02F0CC
:1000080000C015F09EAC11D09E9CC0AE0AD0C4CFE3
:100018002DF02C6AC3502C12000E2D12010E2B6EDF
:1000280004D0C4CF2EF0020E2B6E15C000F01100C4
:06003800000000001200B0
:10003E000F0E0C6E470E0D6E0D2EFED70C2EFCD72E
:06004E000000000012009A
:0A005400210E0D6E0D2EFED71200D6
:10005E00086A096A100E0C6E01340836093604500F
:10006E00085E0550D8A0053C095ED8B007D00450F4
:10007E0008260550D8B0053C0926D8900036013622
:06008E000C2EEAD712005F
:100094005ABE02D08A9601D08A865ABC02D08A946B
:1000A40001D08A845ABA02D08A9201D08A825AB87C
:1000B40002D08A9001D08A802FB002D08A8801D0E1
:1000C4008A988A8AB7DF8A9A5AB602D08A9601D069
:1000D4008A865AB402D08A9401D08A845AB202D051
:1000E4008A9201D08A825AB002D08A9001D08A8042
:1000F4002FB002D08A8801D08A988A8A9BDF8A9A94
:0C0104002FA002D09ADF01D0A3DF120070
:0C0110002F9053C05AF0BEDF2F80120069
:10011C00576A050E575C0AE257505524E16E000EE3
:10012C005620E26E200EE66E572AF3D75750552410
:10013C00E16E000E5620E26EE66A570657505524C3
:10014C00586E000E5620596E0A0E046E000E056E87
:10015C0053C000F054C001F07CDF08C000F009C0AF
:10016C0001F0300E002658C0E1FF59C0E2FF00C07C
:10017C00E6FF0A0E046E000E056E53C000F054C06C
:10018C0001F067DF00C053F001C054F0000E0118FD
:10019C0002E1000E001801E102D05706CFD7120081
:1001AC000FD0800E496E19D0C00E496E16D0940E29
:1001BC00496E13D0D40E496E10D0800E496E0DD0FE
:1001CC004950010AEEE04950020AEEE04950030A98
:1001DC00EEE04950040AEEE0F0D74A04006E4950B4
:1001EC00002600C049F000C05AF04EDF2F904D6A37
:1001FC004D504B24E96E000E4C20EA6EEE520BE093
:10020C004D504B24E96E000E4C20EA6EEECF53F0AD
:0A021C0079DF4D2AEDD72F80120084
:1002260049C004F04AC005F004C002F005C003F05E
:10023600044A052A4BC000F04CC001F04B4A4C2A38
:1002460000C0E9FF01C0EAFF02C0E1FF03C0E2FF10
:10025600EECFE6FF02C0E9FF03C0EAFFEE5201E07F
:0C026600E3D749C000F04AC001F01200CC
:100272000900F5CFE6FF0006FBE10106F9E11200F5
:10028200939A939893909392939493968A9A8A9836
:100292008A968A948A928A90D1DED0DECFDE8A82D2
:1002A2008A808A8AC8DE8A9AC9DE8A8AC4DE8A9AE3
:1002B200C5DE8A8AC0DE8A9AC1DE8A908A8ABBDE5D
:1002C2008A9ABCDE8A8AB7DE8A9A8A928A868A8A61
:1002D200B2DE8A9AB3DE8A968A808A8AACDE8A9AEB
:1002E2008A908A8AA8DE8A9AA9DE8A8AA4DE8A9AF3
:1002F2008A808A8AA0DE8A9AA1DE8A908A8A9BDE16
:100302008A9A8A868A848A828A808A8A94DE8A9AE9
:0603120095DE2F801200B1
:1003180049C004F04AC005F004C0E9FF05C0EAFF7F
:10032800EE5203E0044A052AF7D704C002F005C0DC
:1003380003F0044A052A4BC000F04CC001F04B4AB8
:100348004C2A00C0E9FF01C0EAFF02C0E1FF03C078
:10035800E2FFEECFE6FF02C0E9FF03C0EAFFEE527C
:0E03680001E0E3D749C000F04AC001F01200E6
:100376004F6A506A49C051F04AC052F0800E4A187E
:10038600006E800E005C02E1000E495C0BE2010E7D
:100396004F6E000E506E49500008516E4AC052F022
:1003A600000E525651C053F052C054F04BC055F097
:1003B6004CC056F0B0DE060E4D6E000E4E6E000EB0
:1003C600006E4E50005C02E14D50000819E24D509F
:1003D6004B24E16E4E504C20E26E010E4D5C006ED9
:1003E600000E4E58016E00504B24E96E01504C2011
:1003F600EA6EEECFE6FF010E4D5E000E4E5ADFD7D7
:100406004BC0E1FF4CC0E2FF200EE66E4F5050108D
:100416001AE04D6A4E6A4D504B24E96E4E504C2000
:10042600EA6EEE50200A03E14D4A4E2AF4D7010E39
:100436004D5E000E4E5A4D504B24E16E4E504C20F0
:08044600E26E2D0EE66E1200BD
:10044E000B6A0A6A096A00500402F4CF09F0F3CF6E
:10045E0008F001500502F4CF0BF0F3CF0AF0005074
:10046E000502F3500926F4500A22E86A0B220150C5
:10047E000402F3500926F4500A22E86A0B2208C03F
:10048E0000F009C001F00AC002F00BC003F0120028
:10049E00DCEC02F0EFDE010E5A6EF5DD0C0E5A6E3C
:1004AE00F2DD0F01388192803B819580410EC06E46
:1004BE00010EC26E9D8C9E9CF28CF28EC2822B50CF
:1004CE00010A35E1300E496E000E4A6E200E4B6E5B
:1004DE00000E4C6EA1DE2CC000F02DC001F0050EFA
:1004EE00046E000E056EACDF00C049F001C04AF08C
:1004FE00410E4B6E000E4C6E37DF2B6A300E496E7E
:10050E00000E4A6E410E4B6E000E4C6EFEDE010E5C
:10051E00496E010E4A6E300E4B6E000E4C6E3FDE73
:10052E00C294C296C288C29AC28CC09EC2822B50FE
:10053E00020A2EE1300E496E000E4A6E160E4B6EFA
:10054E00000E4C6E69DE140E2E02F3CF49F0F4CF7E
:10055E004AF0410E4B6E000E4C6E06DF2B6A300ECB
:10056E00496E000E4A6E410E4B6E000E4C6ECDDE85
:10057E00020E496E010E4A6E300E4B6E000E4C6E20
:10058E000EDEC294C296C298C29AC29CC08EC2821D
:04059E0096D7FFD716
:1005B80010EE16F0160E006E010E016EA20EF66E0B
:0E05C800050EF76E000EF86E39EC01F0120011
:0A05A200524430205B6D565D3A00B4
:0B05AC00524130205B6D565D3A20008C
:0105B7000043
:020000040030CA
:0D000100231F3CFFBF81FF0FC00FE00F4029
:00000001FF
