:0400000057EF02F0C4
:1000080000C015F09EAC19D09E9CC0AE0DD0C4CFD8
:100018002CF02B6AC3502B12000E2C12C294C296DD
:10002800C288C29AC28C07D0C4CF2DF0C294C2969F
:10003800C298C29AC29CC07EC28215C000F011004C
:06004800000000001200A0
:10004E000F0E0C6E470E0D6E0D2EFED70C2EFCD71E
:06005E000000000012008A
:0A006400210E0D6E0D2EFED71200C6
:10006E00086A096A100E0C6E0134083609360450FF
:10007E00085E0550D8A0053C095ED8B007D00450E4
:10008E0008260550D8B0053C0926D8900036013612
:06009E000C2EEAD712004F
:1000A40058BE02D08A9601D08A8658BC02D08A945F
:1000B40001D08A8458BA02D08A9201D08A8258B870
:1000C40002D08A9001D08A802EB002D08A8801D0D2
:1000D4008A988A8AB7DF8A9A58B602D08A9601D05B
:1000E4008A8658B402D08A9401D08A8458B202D045
:1000F4008A9201D08A8258B002D08A9001D08A8034
:100104002EB002D08A8801D08A988A8A9BDF8A9A84
:0C0114002EA002D09ADF01D0A3DF120061
:0C0120002E9051C058F0BEDF2E8012005F
:10012C00556A050E555C0AE255505324E16E000EDB
:10013C005420E26E200EE66E552AF3D75550532408
:10014C00E16E000E5420E26EE66A550655505324BB
:10015C00566E000E5420576E0A0E046E000E056E7D
:10016C0051C000F052C001F07CDF08C000F009C0A3
:10017C0001F0300E002656C0E1FF57C0E2FF00C070
:10018C00E6FF0A0E046E000E056E51C000F052C060
:10019C0001F067DF00C051F001C052F0000E0118F1
:1001AC0002E1000E001801E102D05506CFD7120073
:1001BC000FD0800E476E19D0C00E476E16D0940E1D
:1001CC00476E13D0D40E476E10D0800E476E0DD0F4
:1001DC004750010AEEE04750020AEEE04750030A8E
:1001EC00EEE04750040AEEE0F0D74804006E4750AA
:1001FC00002600C047F000C058F04EDF2E904B6A2E
:10020C004B504924E96E000E4A20EA6EEE520BE088
:10021C004B504924E96E000E4A20EA6EEECF51F0A5
:0A022C0079DF4B2AEDD72E80120077
:1002360047C004F048C005F004C002F005C003F052
:10024600044A052A49C000F04AC001F0494A4A2A30
:1002560000C0E9FF01C0EAFF02C0E1FF03C0E2FF00
:10026600EECFE6FF02C0E9FF03C0EAFFEE5201E06F
:0C027600E3D747C000F048C001F01200C0
:100282000900F5CFE6FF0006FBE10106F9E11200E5
:10029200939A939893909392939493968A9A8A9826
:1002A2008A968A948A928A90D1DED0DECFDE8A82C2
:1002B2008A808A8AC8DE8A9AC9DE8A8AC4DE8A9AD3
:1002C200C5DE8A8AC0DE8A9AC1DE8A908A8ABBDE4D
:1002D2008A9ABCDE8A8AB7DE8A9A8A928A868A8A51
:1002E200B2DE8A9AB3DE8A968A808A8AACDE8A9ADB
:1002F2008A908A8AA8DE8A9AA9DE8A8AA4DE8A9AE3
:100302008A808A8AA0DE8A9AA1DE8A908A8A9BDE05
:100312008A9A8A868A848A828A808A8A94DE8A9AD9
:0603220095DE2E801200A2
:1003280047C004F048C005F004C0E9FF05C0EAFF73
:10033800EE5203E0044A052AF7D704C002F005C0CC
:1003480003F0044A052A49C000F04AC001F0494AAE
:100358004A2A00C0E9FF01C0EAFF02C0E1FF03C06A
:10036800E2FFEECFE6FF02C0E9FF03C0EAFFEE526C
:0E03780001E0E3D747C000F048C001F01200DA
:100386004D6A4E6A47C04FF048C050F0800E48187C
:10039600006E800E005C02E1000E475C0BE2010E6F
:1003A6004D6E000E4E6E475000084F6E48C050F01E
:1003B600000E50564FC051F050C052F049C053F095
:1003C6004AC054F0B0DE060E4B6E000E4C6E000EA8
:1003D600006E4C50005C02E14B50000819E24B5095
:1003E6004924E16E4C504A20E26E010E4B5C006ED1
:1003F600000E4C58016E00504924E96E01504A2007
:10040600EA6EEECFE6FF010E4B5E000E4C5ADFD7CA
:1004160049C0E1FF4AC0E2FF200EE66E4D504E1085
:100426001AE04B6A4C6A4B504924E96E4C504A20FC
:10043600EA6EEE50200A03E14B4A4C2AF4D7010E2D
:100446004B5E000E4C5A4B504924E16E4C504A20EC
:08045600E26E2D0EE66E1200AD
:10045E000B6A0A6A096A00500402F4CF09F0F3CF5E
:10046E0008F001500502F4CF0BF0F3CF0AF0005064
:10047E000502F3500926F4500A22E86A0B220150B5
:10048E000402F3500926F4500A22E86A0B2208C02F
:10049E0000F009C001F00AC002F00BC003F0120018
:1004AE00CEEC02F0EFDE010E586EF5DD0C0E586E3E
:1004BE00F2DD0F01388192803B819580410EC06E36
:1004CE00010EC26E9D8C9E9CF28CF28EC2822F0EFD
:1004DE00476E000E486E200E496E000E4A6EA4DE68
:1004EE002BC000F02CC001F0050E046E000E056E40
:1004FE00AFDF00C047F001C048F03F0E496E000E5E
:10050E004A6E3ADF2F0E476E000E486E3F0E496E52
:10051E00000E4A6E02DF010E476E010E486E2F0E60
:10052E00496E000E4A6E43DE2F0E476E000E486E69
:10053E00160E496E000E4A6E77DE140E2D02F3CFA4
:10054E0047F0F4CF48F03F0E496E000E4A6E14DFAE
:10055E002F0E476E000E486E3F0E496E000E4A6E0D
:10056E00DCDE020E476E010E486E2F0E496E000E37
:08057E004A6E1DDEACD7FFD769
:10059C0010EE16F0150E006E010E016E860EF66E44
:0E05AC00050EF76E000EF86E41EC01F0120025
:0A058600524430205B6D565D3A00D0
:0B059000524130205B6D565D3A2000A8
:020000040030CA
:0D000100231F3CFFBF81FF0FC00FE00F4029
:00000001FF
