:04000000BAEF00F063
:1000080000C015F0F2A01FD081AE0ED0800E1718D8
:10001800006E800E130A005C02E1880E165C04E292
:10002800320E1626000E172281AC0DD0800E006EFF
:10003800800E1718005C02E11650320804E2320EF6
:0E004800165E000E175AF29015C000F011005F
:10005600220E0C6E086A096A0A6A0B6A0C06D8B484
:100066001FD0D8900B320A320932083203320232DC
:1000760001320032D8A0F2D70C06D8B409D0045009
:1000860008260550092206500A2207500B22EAD7F5
:10009600045008260550092206500A2207500B2252
:0200A600120046
:1000A800D00E1B6E070E1C6E000E1D6E1E6ED00E3F
:1000B800006E070E016E000E026E000E036E19C070
:1000C80004F01AC005F0000E066E076EC0DF00C00F
:1000D8001BF001C01CF002C01DF003C01EF0000E92
:1000E800035C08E1000E025C05E1020E015C02E11E
:1000F800940E005C01E231D0940E1B5E020E1C5A75
:10010800000E1D5A1E5A050E006E005007E01E32E2
:100118001D321C321B321E9EFF0FF8D71BC000F089
:100128001CC001F01DC002F01EC003F0010E1B5ED2
:10013800000E1C5A1D5A1E5A0050011002100310BE
:100148000CE00000000000000000000000000000BB
:0C0158000000000000000000E1D71200D1
:100164000900F5CFE6FF0006FBE10106F9E1120004
:10017400F40E166E010E176E186A938C938E0F018F
:10018400399D399F880EF26E946A010E8B6E16C0EB
:1001940019F017C01AF086DF010E186E800E070AD8
:1001A400006E800E1818005C0DE38BCF00F0003653
:1001B400009000C08BFF16C019F017C01AF072DF50
:1001C400182AECD7070E186E800E000A006E800EF7
:1001D4001818005C0DE28BCF00F00032009E00C0C6
:1001E4008BFF16C019F017C01AF05CDF1806ECD7A5
:0401F400D3D7FFD787
:020000040030CA
:0D000100231F3CFFBF81FF0FC00FE00F4029
:00000001FF
