:04000000C4EF01F058
:10000800F2A407D0F294F80ED66E174A182A154AA9
:04001800162A110093
:06001C00000000001200CC
:100022000F0E0C6E470E0D6E0D2EFED70C2EFCD74A
:06003200000000001200B6
:0A003800210E0D6E0D2EFED71200F2
:10004200086A096A100E0C6E01340836093604502B
:10005200085E0550D8A0053C095ED8B007D0045010
:1000620008260550D8B0053C0926D890003601363E
:060072000C2EEAD712007B
:100078003ABE02D08A9601D08A863ABC02D08A94C7
:1000880001D08A843ABA02D08A9201D08A823AB8D8
:1000980002D08A9001D08A8019B002D08A8801D013
:1000A8008A988A8AB7DF8A9A3AB602D08A9601D0A5
:1000B8008A863AB402D08A9401D08A843AB202D0AD
:1000C8008A9201D08A823AB002D08A9001D08A807E
:1000D80019B002D08A8801D08A988A8A9BDF8A9AC6
:0C00E80019A002D09ADF01D0A3DF1200A3
:0C00F400199033C03AF0BEDF19801200F2
:10010000376A050E375C0AE237503524E16E000E7F
:100110003620E26E200EE66E372AF3D737503524AC
:10012000E16E000E3620E26EE66A3706375035245F
:10013000386E000E3620396E0A0E046E000E056E03
:1001400033C000F034C001F07CDF08C000F009C00B
:1001500001F0300E002638C0E1FF39C0E2FF00C0D8
:10016000E6FF0A0E046E000E056E33C000F034C0C8
:1001700001F067DF00C033F001C034F0000E011859
:1001800002E1000E001801E102D03706CFD71200BD
:10019000939A939893909392939493968A9A8A9829
:1001A0008A968A948A928A903CDF3BDF3ADF8A8281
:1001B0008A808A8A33DF8A9A34DF8A8A2FDF8A9A92
:1001C00030DF8A8A2BDF8A9A2CDF8A908A8A26DFA0
:1001D0008A9A27DF8A8A22DF8A9A8A928A868A8A7C
:1001E0001DDF8A9A1EDF8A968A808A8A17DF8A9A9A
:1001F0008A908A8A13DF8A9A14DF8A8A0FDF8A9AA2
:100200008A808A8A0BDF8A9A0CDF8A908A8A06DFC4
:100210008A9A8A868A848A828A808A8AFFDE8A9A71
:0602200000DF198012004E
:100226000900F5CFE6FF0006FBE10106F9E1120041
:100236000FD0800E296E19D0C00E296E16D0940EDE
:10024600296E13D0D40E296E10D0800E296E0DD0D3
:100256002950010AEEE02950020AEEE02950030A6D
:10026600EEE02950040AEEE0F0D72A04006E295089
:10027600002600C029F000C03AF0FBDE19902D6A76
:100286002D502B24E96E000E2C20EA6EEE520BE068
:100296002D502B24E96E000E2C20EA6EEECF33F0A3
:0A02A60026DF2D2AEDD71980120083
:1002B0002F6A306A29C031F02AC032F0800E2A1825
:1002C000006E800E005C02E1000E295C0BE2010E64
:1002D0002F6E000E306E29500008316E2AC032F0A9
:1002E000000E325631C033F032C034F02BC035F03E
:1002F0002CC036F005DF060E2D6E000E2E6E000EA1
:10030000006E2E50005C02E12D50000819E22D50C5
:100310002B24E16E2E502C20E26E010E2D5C006E1F
:10032000000E2E58016E00502B24E96E01502C2037
:10033000EA6EEECFE6FF010E2D5E000E2E5ADFD7DD
:100340002BC0E1FF2CC0E2FF200EE66E2F503010D4
:100350001AE02D6A2E6A2D502B24E96E2E502C2087
:10036000EA6EEE50200A03E12D4A2E2AF4D7010E40
:100370002D5E000E2E5A2D502B24E16E2E502C2077
:08038000E26E2D0EE66E120084
:10038800156A166A176A186AFF0E216E7E0E226EAB
:100398003C0E236E180E246E256A010E266E276AFF
:1003A800286AC70ED56EF80ED66E956AF28AF28E56
:1003B800EBDE010E3A6E5CDE0C0E3A6E59DE16501C
:1003C800030802E11550E8081BE2156A166A210EB7
:1003D800E96E000EEA6E2750E926D8B0EA2AEECF79
:1003E8008CFF2750040AD8B4266A2750000A02E175
:1003F800010E266E2650010A02E1272A01D027069F
:100408001850010802E11750F4081BE2282A176A5D
:10041800186A010E3A6E2CDE0C0E3A6E29DE28C0E0
:1004280029F0000E2A6E1A0E2B6E000E2C6E3CDF81
:10043800010E296E010E2A6E1A0E2B6E000E2C6EFE
:06044800F6DEBDD7FFD770
:020000040030CA
:0D000100231F3CFFBF81FF0FC00FE00F4029
:00000001FF
