:04000000C4EF01F058
:10000800F2A407D0F294F80ED66E174A182A154AA9
:04001800162A110093
:06001C00000000001200CC
:100022000F0E0C6E470E0D6E0D2EFED70C2EFCD74A
:06003200000000001200B6
:0A003800210E0D6E0D2EFED71200F2
:10004200086A096A100E0C6E01340836093604502B
:10005200085E0550D8A0053C095ED8B007D0045010
:1000620008260550D8B0053C0926D890003601363E
:060072000C2EEAD712007B
:1000780036BE02D08A9601D08A8636BC02D08A94CF
:1000880001D08A8436BA02D08A9201D08A8236B8E0
:1000980002D08A9001D08A8019B002D08A8801D013
:1000A8008A988A8AB7DF8A9A36B602D08A9601D0A9
:1000B8008A8636B402D08A9401D08A8436B202D0B5
:1000C8008A9201D08A8236B002D08A9001D08A8082
:1000D80019B002D08A8801D08A988A8A9BDF8A9AC6
:0C00E80019A002D09ADF01D0A3DF1200A3
:0C00F40019902FC036F0BEDF19801200FA
:10010000336A050E335C0AE233503124E16E000E8F
:100110003220E26E200EE66E332AF3D733503124BC
:10012000E16E000E3220E26EE66A3306335031246F
:10013000346E000E3220356E0A0E046E000E056E0F
:100140002FC000F030C001F07CDF08C000F009C013
:1001500001F0300E002634C0E1FF35C0E2FF00C0E0
:10016000E6FF0A0E046E000E056E2FC000F030C0D0
:1001700001F067DF00C02FF001C030F0000E011861
:1001800002E1000E001801E102D03306CFD71200C1
:10019000939A939893909392939493968A9A8A9829
:1001A0008A968A948A928A903CDF3BDF3ADF8A8281
:1001B0008A808A8A33DF8A9A34DF8A8A2FDF8A9A92
:1001C00030DF8A8A2BDF8A9A2CDF8A908A8A26DFA0
:1001D0008A9A27DF8A8A22DF8A9A8A928A868A8A7C
:1001E0001DDF8A9A1EDF8A968A808A8A17DF8A9A9A
:1001F0008A908A8A13DF8A9A14DF8A8A0FDF8A9AA2
:100200008A808A8A0BDF8A9A0CDF8A908A8A06DFC4
:100210008A9A8A868A848A828A808A8AFFDE8A9A71
:0602200000DF198012004E
:100226000900F5CFE6FF0006FBE10106F9E1120041
:100236000FD0800E256E19D0C00E256E16D0940EE6
:10024600256E13D0D40E256E10D0800E256E0DD0DF
:100256002550010AEEE02550020AEEE02550030A79
:10026600EEE02550040AEEE0F0D72604006E255095
:10027600002600C025F000C036F0FBDE1990296A82
:1002860029502724E96E000E2820EA6EEE520BE074
:1002960029502724E96E000E2820EA6EEECF2FF0B3
:0A02A60026DF292AEDD71980120087
:1002B0002B6A2C6A25C02DF026C02EF0800E261841
:1002C000006E800E005C02E1000E255C0BE2010E68
:1002D0002B6E000E2C6E255000082D6E26C02EF0C1
:1002E000000E2E562DC02FF02EC030F027C031F05A
:1002F00028C032F005DF060E296E000E2A6E000EB1
:10030000006E2A50005C02E12950000819E22950D1
:100310002724E16E2A502820E26E010E295C006E2F
:10032000000E2A58016E00502724E96E0150282043
:10033000EA6EEECFE6FF010E295E000E2A5ADFD7E5
:1003400027C0E1FF28C0E2FF200EE66E2B502C10E4
:100350001AE0296A2A6A29502724E96E2A5028209F
:10036000EA6EEE50200A03E1294A2A2AF4D7010E48
:10037000295E000E2A5A29502724E16E2A5028208F
:08038000E26E2D0EE66E120084
:10038800156A166A176A186AFF0E1D6E7E0E1E6EB3
:100398003C0E1F6E180E206E216A010E226E236A13
:1003A800246AC70ED56EF80ED66E956AF28AF28E5A
:1003B800EBDE010E366E5CDE0C0E366E59DE165024
:1003C800030802E11550E8081BE2156A166A1D0EBB
:1003D800E96E000EEA6E2350E926D8B0EA2AEECF7D
:1003E8008CFF2350040AD8B4226A2350000A02E181
:1003F800010E226E2250010A02E1232A01D02306AF
:100408001850010802E11750F4081BE2242A176A61
:10041800186A010E366E2CDE0C0E366E29DE24C0EC
:1004280025F0000E266E1A0E276E000E286E3CDF91
:10043800010E256E010E266E1A0E276E000E286E0E
:06044800F6DEBDD7FFD770
:020000040030CA
:0D000100231F3CFFBF81FF0FC00FE00F4029
:00000001FF
