:0400000067EF00F0B6
:10000800F2A407D0F294F80ED66E154A162A174AAB
:04001800182A110091
:06001C00000000001200CC
:100022000F0E0C6E470E0D6E0D2EFED70C2EFCD74A
:06003200000000001200B6
:0A003800210E0D6E0D2EFED71200F2
:100042000900F5CFE6FF0006FBE10106F9E1120027
:1000520021BE02D08A9601D08A8621BC02D08A941F
:1000620001D08A8421BA02D08A9201D08A8221B830
:1000720002D08A9001D08A8019B002D08A8801D039
:100082008A988A8ACADF8A9A21B602D08A9601D0D1
:100092008A8621B402D08A9401D08A8421B202D005
:1000A2008A9201D08A8221B002D08A9001D08A80BD
:1000B20019B002D08A8801D08A988A8AAEDF8A9AD9
:0C00C20019A002D0ADDF01D0B6DF1200A3
:1000CE00156A166A176A186AFF0E1A6E7E0E1B6E76
:1000DE003C0E1C6E180E1D6E1E6A010E1F6E206ADF
:1000EE00C70ED56EF80ED66E956AF28AF28E010E96
:1000FE00216EA8DF0C0E216EA5DF1850030802E159
:10010E001750E8081BE2176A186A1A0EE96E000EFD
:10011E00EA6E2050E926D8B0EA2AEECF8CFF2050A6
:10012E00040AD8B41F6A2050000A02E1010E1F6EA5
:10013E001F50010A02E1202A01D02006DED7FFD788
:020000040030CA
:0D000100231F3CFFBF81FF0FC00FE00F4029
:00000001FF
