:040000002BEF00F0F2
:1000080000C015F0F2A418D0F294F80ED66E164A75
:10001800172A030E175C02E1E80E165C0DE3184A76
:10002800192A166A176A000E1B1802E1010E1A181F
:0E00380002E1212A01D0210615C000F01100BE
:100046000900F5CFE6FF0006FBE10106F9E1120023
:10005600166A176A186A196A010E1A6E1B6AFF0E6B
:100066001C6E7E0E1D6E3C0E1E6E180E1F6E206AD6
:10007600216AC70ED56EF80ED66E956AF28AF28E92
:100086001C0EE96E000EEA6E2150E926000E21BE16
:10009600FF0EEA22EECF8CFF2150040A04E1FF0E88
:1000A6001A6EFF0E1B6E2150000A04E1010E1A6E35
:0800B600000E1B6EE5D7FFD719
:020000040030CA
:0D000100231F3CFFBF81FF0FC00FE00F4029
:00000001FF
